:100000000C9487030C9400000C9400000C940000E6
:100010000C9400000C9400000C9400000C94000060
:100020000C9400000C9400000C9400000C94000050
:100030000C9400000C9400000C9400000C94000040
:100040000C9400000C9400000C9400000C94000030
:040050000C9400000C
:10070E00BFE5BDBFB4E0BEBF0E94A4032F92BDDF04
:10071E002090600041DFC3DF29E216E900E80A9568
:10072E00F1F71A95E1F72A95D1F7F2CF2F90FFCF77
:00073E00BB
:100698002F9269DEB1E02B2E04DEBCE02B2E01DEAA
:0406A8002F900895F2
:10036E00B0913500B77FB0933500B0913500BB7FAB
:10037E00B0933500B0913500BF77B0933500B09192
:10038E003500BF7BB0933500B0913500BF7DB09383
:10039E003500B0913500BF7EB0933500B09134007A
:1003AE00B860B0933400B0913400B460B0933400B0
:1003BE00B0913400B061B0933400B0913400B062AB
:1003CE00B0933400B0913400B064B0933400B09167
:1003DE003400B068B09334006BDE6ADE69DEB09133
:1003EE003500B062B0933500B0913500B061B09376
:1003FE003500B0913500B860B093350053DEB09142
:10040E003500B77FB093350053DEB0913500B8603C
:10041E00B093350047DEB0913500B77FB09335000D
:10042E0047DEB0913500B860B09335003BDEB09139
:10043E003500B77FB09335003BDEB0913500BF7EFF
:10044E00B0933500B0913500B860B09335002ADE18
:10045E00B0913500B77FB09335002ADEB0913500EC
:10046E00B860B09335001EDEB0913500B77FB09303
:10047E003500B0913500BF7DB0933500B091350099
:10048E00B068B0933500B0913500B860B0933500C8
:10049E0009DEB0913500B77FB093350009DEB0911B
:1004AE003500BF77B0933500B0913500B061B09391
:1004BE003500B0913500B860B0933500F3DDB091E2
:1004CE003500B77FB0933500B0913500BF7EB09345
:1004DE003500B0913500B860B0933500E3DDB091D2
:1004EE003500B77FB0933500E3DDB0913500B860CD
:1004FE00B0933500D7DDB0913500B77FB09335009E
:10050E00B0913500B061B0933500B0913500B86050
:10051E00B0933500C7DDB0913500B77FB09335008D
:10052E00C7DDB0913500BF7EB0933500B091350078
:10053E00B860B0933500B6DDB0913500B77FB0939B
:10054E003500B0913500B068B0933500B0913500EC
:10055E00B064B0933500B0913500B062B093350001
:10056E00B0913500B061B0933500B0913500B860F0
:10057E00B093350097DDB0913500B77FB09335005D
:0E058E0097DDB0916D00B160B0936D000895DF
:1000BE001AE303E20A95F1F71A95E1F70000000042
:0200CE00089593
:0C00B20002E00A95F1F70000000008953C
:1002AA0027FAB0913500B7F9B093350026FAB09124
:1002BA003500B6F9B093350025FAB0913500B5F995
:1002CA00B093350024FAB0913500B4F9B0933500F3
:1002DA00B0916D0000903500E894B0FF689402F880
:1002EA0000923500B0913500B860B0933500DCDE7D
:1002FA00B0913500B77FB093350023FAB09135003D
:10030A00B7F9B093350022FAB0913500B6F9B09337
:10031A00350021FAB0913500B5F9B093350020FACD
:10032A00B0913500B4F9B0933500B0916D000090EA
:10033A003500E894B0FF689402F800923500B09155
:10034A003500B860B0933500AFDEB0913500B77FA5
:10035A00B0933500B0916D00B0FF02C0ABDE01C0B2
:04036A007FDE089595
:0A006A0005E80A95F1F7000008957B
:1005A600CF93DF93CDB7DEB72A97CDBFDEBF2196B7
:1005B6002F92222474DE20E017FD2FEF322F48E819
:1005C60053E160E070E0C2DD4FEF53E060E070E0C1
:1005D6007CDD89019A010C831D83AE01488759870A
:1005E60048EE53E0D1DD8B0128853985F90100837A
:1005F6008E010F5F1F4F0887198744E650E00C8174
:100606001D81C2DD8B014AE050E0BEDD8C012885EC
:100616003985F90100838E010E5F1F4F0887198700
:100626004AE050E00C811D81AFDD8B014AE050E0CD
:10063600ABDD8C0128853985F90100838E010D5FBC
:100646001F4F088719874AE050E00C811D819CDD09
:100656008C0128853985F901008340E0443090F407
:1006660009E610E0242F30E0200F311F8E01E42F21
:10067600F0E0E00FF11F0081F9010083042F0F5F06
:10068600402FECCF2F902996CDBFDEBFDF91CF91C3
:020696000895C5
:0602A400D7DEF2DE089532
:10005400B6E4B0936E00B0E0B0936F00B7E8B6B901
:06006400B0E0B7B90895F9
:10008C0007B1007E022907B9B6B1B064B6B9B6B1F2
:10009C00B6FF01C0FCCF24B130E005B1102F002712
:0600AC00022B132B089546
:10015200049FD001159FF001249FE00DF11D069F21
:10016200E00DF11D349FF00D259FF00D169FF00D4F
:10017200079FF00D3327149FB00DE11DF31F059F5C
:0C018200B00DE11DF31F8D019F010895D9
:1000D000C9019A01AB01B80197FB092E05260ED084
:1000E00057FD04D014D00AD0001C38F45095409528
:1000F000309521953F4F4F4F5F4F0895F6F79095FC
:100100008095709561957F4F8F4F9F4F0895A1E225
:100110001A2EAA1BBB1BFD010DC0AA1FBB1FEE1F81
:10012000FF1FA217B307E407F50720F0A21BB30BCC
:10013000E40BF50B661F771F881F991F1A9469F748
:1001400060957095809590959B01AC01BD01CF01A4
:02015000089510
:10018E00C801BA0197FB092E07260AD077FD04D0C5
:10019E000CD006D000201AF4709561957F4F08950B
:1001AE00F6F7909581959F4F0895AA1BBB1B51E1C1
:1001BE0007C0AA1FBB1FA617B70710F0A61BB70BC9
:1001CE00881F991F5A95A9F780959095BC01CD016E
:0401DE0008950895E3
:1006AC002F923F924F925F92B1E02B2EF8DDB4E681
:1006BC004B2EB0E05B2EB4E03B2EB2E02B2EA5DD32
:1006CC0000916900005D202ECFDCBEE22B2ECCDC2D
:1006DC0000916A00005D202EC7DC00916B00005D6C
:1006EC00202EC2DC00916C00005D202EBDDCB1E63A
:1006FC002B2EB0E03B2E6FDD5F904F903F902F90F4
:02070C0008954E
:100216002F920FC0B0E82B2E19C0B0EC2B2E16C0B3
:10022600B4E92B2E13C0B4ED2B2E10C0B0E82B2E44
:100236000DC0B1E02B1671F3B2E02B1671F3B3E0EB
:100246002B1671F3B4E02B1671F3F0CF032D01508A
:10025600020D202E202E26D0B0916D00BE7FB093C9
:100266006D0010E0E12FF0E0E40DF51D00810023A4
:1002760079F0E12FF0E0E40DF51D00811F932F9238
:10028600202EF5DE2F901F91012F0F5F102FEACF42
:0E029600B0916D00B160B0936D002F9008958F
:10007400B0916D00BE7FB0936D0015D1B0916D004D
:08008400B160B0936D00089516
:1001E20010E0E12FF0E0E20DF31D0081002389F021
:1001F200E12FF0E0E20DF31D00811F933F922F9259
:10020200202E37DF2F903F901F91012F0F5F102F6D
:04021200E8CF089594
:0A059C0005900D920197E1F7089514
:10074800A0E6B0E0EEE3F7E089E090E00E94CE0298
:02075800089502
:01073E0000BA
:03073F0020560041
:0507420055203D2000E0
:00000001FF
