:100000000C94B3000C9400000C9400000C940000BD
:100010000C9400000C9400000C9400000C94000060
:100020000C9400000C9400000C9400000C94000050
:100030000C9400000C9400000C9400000C94000040
:100040000C9400000C9400000C9400000C94000030
:040050000C9400000C
:10016600BFE5BDBFB4E0BEBF2F923F92B0E0B7BBC4
:10017600B7E0B4BBB7E0B8BB29C035C0B1E0B5BB8A
:10018600B2E32B2EB0E03B2E85DFB0E0B5BB2BC033
:10019600B2E0B5BBB2E32B2EB0E03B2E7BDFB0E086
:1001A600B5BB21C0B4E0B5BBB2E32B2EB0E03B2E0D
:1001B60071DFB0E0B5BB17C0B7E0B5BBB2E32B2E1D
:1001C600B0E03B2E67DFB0E0B5BB0DC006B307302D
:1001D600A1F206B3063091F206B30530C9F206B3B2
:0E01E600033001F3E9CFC8CF3F902F90FFCF39
:10009A0000E117E220E030E0A10160E0762FD5DF31
:1000AA00B6E03695279517950795BA95D1F7045076
:1000BA0010402040304028013901A201B3018201D9
:1000CA009301015010402040304028013901B42FDB
:1000DA00B52BB62BB72BF1F0000000000000000092
:1000EA000000000000000000000000000000000006
:1000FA0000000000000000000000000000000000F6
:10010A0000000000000000000000000000000000E5
:10011A000000D3CF00000000000000000000000033
:10012A0000000000000000000000000000000000C5
:10013A0000000000000000000000000000000000B5
:10014A0000000000000000000000000000000000A5
:0C015A00000000000000000000000895FC
:10005400049FD001159FF001249FE00DF11D069F20
:10006400E00DF11D349FF00D259FF00D169FF00D4E
:10007400079FF00D3327149FB00DE11DF31F059F5B
:0C008400B00DE11DF31F8D019F010895D8
:0A00900005900D920197E1F7089525
:00000001FF
