:02000000742E5C
:06000600000000000800EC
:10000C000F3083120313FC004730FD00FD0B0C284E
:0A001C00FC0B0C2800000000080097
:0E002600213083120313FD00FD0B1728080084
:1000340083160313C41B21288312871323288312D6
:1000440087178316441B2928831207132B2883122E
:1000540007178316C41A3128831287123328831290
:1000640087168316441A3928831207123B288312F1
:1000740007166E183F280715402807118715032017
:1000840087118316C4194928831287134B288312B6
:100094008717831644195128831207135328831290
:1000A40007178316C4185928831287125B288312F2
:1000B4008716831644186128831207126328831253
:1000C40007166E1867280715682807118715032077
:0E00D40087116E1C6F2806207028132008006C
:1000E200710DF80DF90D7408F8027508031C750FEF
:1000F200F902F00DF10D0F30FC00710DF80DF90D44
:100102007408701C8A28F8027508031C750FF9021E
:100112008F28F80775080318750FF907F00DF10D10
:10012200FC0B7E2870189B287408F80775080318C2
:08013200750FF9070000080039
:10013A00FB09FA09F909F809F80A0319F90A03196E
:08014A00FA0A0319FB0A080080
:100152007408F8027508031C750FF9027608031C6F
:10016200760FFA027708031C770FFB02F30D0730B4
:10017200FC00730DF80DF90DFA0DFB0D7408731CDC
:10018200D028F8027508031C750FF9027608031CC3
:10019200760FFA027708031C770FFB02DD28F807B7
:1001A20075080318750FF90776080318760FFA0712
:1001B20077080318770FFB07F30DFC0BBA28720DB3
:1001C200F80DF90DFA0DFB0D7408731CF628F802F0
:1001D2007508031C750FF9027608031C760FFA02E4
:1001E2007708031C770FFB020329F8077508031829
:1001F200750FF90776080318760FFA0777080318C0
:10020200770FFB07F20D0730FC00720DF80DF90DA8
:10021200FA0DFB0D7408721C1C29F8027508031CE8
:10022200750FF9027608031C760FFA027708031C91
:10023200770FFB022929F80775080318750FF907CC
:1002420076080318760FFA0777080318770FFB076B
:10025200F20DFC0B0629710DF80DF90DFA0DFB0DCF
:100262007408721C4229F8027508031C750FF90202
:100272007608031C760FFA027708031C770FFB023D
:100282004F29F80775080318750FF9077608031840
:10029200760FFA0777080318770FFB07F10D07307F
:1002A200FC00710DF80DF90DFA0DFB0D7408711CAF
:1002B2006829F8027508031C750FF9027608031CF9
:1002C200760FFA027708031C770FFB027529F807ED
:1002D20075080318750FF90776080318760FFA07E1
:1002E20077080318770FFB07F10DFC0B5229700DED
:1002F200F80DF90DFA0DFB0D7408711C8E29F80228
:100302007508031C750FF9027608031C760FFA02B2
:100312007708031C770FFB029B29F807750803185F
:10032200750FF90776080318760FFA07770803188E
:10033200770FFB07F00D0730FC00700DF80DF90D7B
:10034200FA0DFB0D7408701CB429F8027508031C21
:10035200750FF9027608031C760FFA027708031C60
:10036200770FFB02C129F80775080318750FF90703
:1003720076080318760FFA0777080318770FFB073A
:10038200F00DFC0B9E297018D4297408F807750823
:100392000318750FF90776080318760FFA0777081E
:0803A2000318770FFB070800A8
:1003AA00831203136E1083164308C4001A206E14B6
:0203BA00080039
:1003BC000E3083120313FD00FD0BE2290000080030
:0E03CC008312031369088A0068088200080083
:1003DA00FF29803083160313BF00122AC030BF00E2
:1003EA00122A9430BF00122AD430BF00122A803059
:1003FA00BF00122A831603133F08013A0319EE2994
:10040A003F08023A0319F3293F08033A0319F62968
:10041A003F08043A0319F929FC294003F0003F0870
:10042A00F0077008BF007008C4001A206E10831607
:10043A00C201420841078400000803192D2A420814
:10044A00410784000008C300D5218316C20A1E2A68
:06045A0083126E1408007D
:10046000FF3083160313BC00FF30BD00FF30BE0019
:10047000FF3083129F01C0309F0483161F179F1700
:0604800083121F140800A6
:10048600831203137408003A031D5E2A7508003AA6
:10049600031D5E2A7608003A031D5E2A7708003A95
:1004A600031D5E2AFF30F000FF30F100FF30F2003E
:1004B6007F30F300080083120313FC01F71BFC0ACC
:1004C600FD01FB01FA01F901F801730872047104D8
:1004D60070040319F22A73087706A000A01BFD0911
:1004E600F71F802AF409F509F609F709F40A031932
:1004F600F50A0319F60A0319F70AF31F8D2AF009FC
:10050600F109F209F309F00A0319F10A0319F20ACB
:100516000319F30A73087704A000A01BAE2AA920CA
:10052600FC1BCB2AFD1FF22AF009F109F209F30997
:10053600F00A0319F10A0319F20A0319F30AF80972
:10054600F909FA09FB09F80A0319F90A0319FA0A5B
:100556000319FB0AF22AF71FC52AF31BBF2A7308E1
:10056600FB007208FA007108F9007008F800F30140
:10057600F201F101F001952AF301F201F101F00116
:10058600F00A0034F309F209F109F009FC17922A7E
:10059600F80A0319F90A0319FA0A0319FB0A740877
:1005A6007802031D952A75087902031D952A760897
:1005B6007A02031D952A77087B02031D952AFB0103
:1005C600FA01F901F801F00A0319F10A0319F20A0E
:1005D6000319F30AF31F952AA0012016FF34A00180
:0A05E6007C1CF62A9D20003E080050
:1005F00083160313C00140083F0784000008031955
:100600000A2B40083F0784000008C300D521831649
:06061000C00AFB2A0800ED
:10061600831203137408003A031D1A2B7508003A57
:10062600031D1A2BFF30F0007F30F1000800831203
:100636000313FD01F901F801710870040319003470
:1006460071087506FA00FA1BFD09FB01F51F302B30
:10065600F409F509F40A0319F50AF11F372BF00915
:10066600F109F00A0319F10A71087504FA00FA1B78
:100676004C2B71207B185F2BFD1F0034F009F1090C
:10068600F00A0319F10AF809F909F80A0319F90A2F
:100696000034F51F5B2BF11B572B7108F90070080E
:1006A600F800F101F0013F2BF101F001F00A0034EE
:1006B600F109F009FB0A3C2BF80A0319F90A740838
:1006C6007802031D3F2B75087902031D3F2BF901A4
:1006D600F801F00A0319F10AF11F3F2B0000FF345D
:0206E60008000A
:1006E800831203139F01C0309F0483161F179F179F
:1006F8003F08F000F00D7010F00D7010F00D701044
:10070800700883129F041F14DE211F151F1D8E2BD6
:1007180000008A2B1F101E08F100F00183161E0826
:08072800F0040030F1040800A8
:1007300083160313871107110712871207138713F4
:1007400083128711071187130713871207120620D8
:100750000620062087160716871503208711062016
:10076000871503208711062087150320871106208F
:10077000071287150320871106208715032087118C
:1007800087128717871503208711062087130716FE
:10079000871503208711071287150320871106206C
:1007A0008715032087110716871503208711062058
:1007B0000712871503208711871707178716071653
:0C07C00087150320871106206E14080026
:1007CC00831203132230FC00F801F901FA01FB013A
:1007DC00FC0303191C2C0310FB0CFA0CF90CF80C81
:1007EC00F30CF20CF10CF00C031CEE2BFC030319B4
:1007FC000E2C7408F80775080318750FF90776089E
:10080C000318760FFA0777080318770FFB07F22BFC
:10081C007408F80775080318750FF907760803189C
:0E082C00760FFA0777080318770FFB0708000E
:10083A0083160313BF01742370088312EC00710836
:10084A00ED000030F11BFF30F200F3008830F400B5
:10085A001330F500F601F701E623FF30F400033008
:10086A00F500F601F70143227008EA007108EB006F
:10087A0001308316C4001A2001308316BF000430E9
:10088A00C0002E30C100ED21E830F4000330F5003D
:10089A006A08F0006B08F1000B237008E600700884
:1008AA00303E8316C300D5216430F4000030F500D1
:1008BA006A08F0006B08F1000B230A30F4000030DC
:1008CA00F5000B237808F0007908F1007008E600BB
:1008DA007008303E8316C300D5210A30F400003078
:1008EA00F5006A08F0006B08F1000B230A30F400E7
:1008FA000030F5000B237808F0007908F100700841
:10090A00E6007008303E8316C300D5210A30F40091
:10091A000030F5006A08F0006B08F1000B23780834
:10092A00F0007908F1007008E6007008303E83167E
:10093A00C300D52127308316BF00F8220230BF003A
:10094A000430C0002130C100ED21E830F40003304A
:10095A00F5006A08F0006B08F1000B237008E70045
:10096A007008303E8316C300D5212E308316C3008B
:10097A00D5216430F4000030F5006A08F0006B08F5
:10098A00F1000B230A30F4000030F5000B2378083D
:10099A00F0007908F1007008E7007008303E83160D
:1009AA00C300D5210A30F4000030F5006A08F000CF
:1009BA006B08F1000B230A30F4000030F5000B231A
:1009CA007808F0007908F1007008E7007008303EF6
:1009DA008316C300D5210A30F4000030F5006A08F6
:1009EA00F0006B08F1000B237808F0007908F10099
:1009FA007008E7007008303E8316C300D5212B30FB
:100A0A008316BF00F8221530FB004B30FC00BE30C5
:100A1A00FD00FD0B0E2DFC0B0E2DFB0B0E2D000009
:020A2A000800C2
:100A2C00013083160313BF000230C0005730C100E1
:100A3C00ED2102308316BF000230C0004730C100E8
:100A4C00ED211530FB004B30FC00BE30FD00FD0BE2
:100A5C002D2DFC0B2D2DFB0B2D2D000001308316A5
:060A6C00C4001A2008007E
:100A7200013083160313BF000230C000AC30C10046
:100A8200ED2102308316BF000230C000A030C10049
:100A9200ED211530FB004B30FC00BE30FD00FD0B9C
:100AA200502DFC0B502DFB0B502D000001308316F6
:060AB200C4001A20080038
:100AB800E6218A110A128000840AE80A0319E90A61
:080AC800F003031D5C2D080082
:100AD0000330831603138500033086008113302210
:100AE000982301308316C4001A200C308316C400EA
:040AF0001A200800C0
:100AF400013083160313BF00742370088312EC00C3
:100B04007108ED000030F11BFF30F200F300883073
:100B1400F4001330F500F601F701E623FF30F4008A
:100B24000330F500F601F70143227008EA0071086A
:100B3400EB0001308316C4001A2001308316BF0075
:100B44000430C0003E30C100ED21E830F400033031
:100B5400F5006A08F0006B08F1000B237008E6004A
:100B64007008303E8316C300D5216430F400003091
:100B7400F5006A08F0006B08F1000B230A30F4005A
:100B84000030F5000B237808F0007908F1007008B4
:100B9400E6007008303E8316C300D5210A30F40005
:100BA4000030F5006A08F0006B08F1000B230A30EE
:100BB400F4000030F5000B237808F0007908F10008
:100BC4007008E6007008303E8316C300D5210A3051
:100BD400F4000030F5006A08F0006B08F1000B2304
:100BE4007808F0007908F1007008E6007008303EDB
:100BF4008316C300D5213A308316BF00F822023091
:100C0400BF000430C0003430C100ED21E830F400EE
:100C14000330F5006A08F0006B08F1000B2370083C
:100C2400E7007008303E8316C300D5212E308316AA
:100C3400C300D5216430F4000030F5006A08F000E8
:100C44006B08F1000B230A30F4000030F5000B238D
:100C54007808F0007908F1007008E7007008303E69
:100C64008316C300D5210A30F4000030F5006A0869
:100C7400F0006B08F1000B230A30F4000030F5009B
:100C84000B237808F0007908F1007008E700700879
:100C9400303E8316C300D5210A30F4000030F5003D
:100CA4006A08F0006B08F1000B237808F00079085B
:100CB400F1007008E7007008303E8316C300D521A8
:100CC40044308316BF00F8221530FB004B30FC0083
:100CD400BE30FD00FD0B6C2EFC0B6C2EFB0B6C2E42
:040CE4000000080004
:100CE800F8266825831203300605EF00832E1625A3
:100CF800902E1D24902E7A25902E3925902E6F083F
:100D0800033A03197B2E6F08023A03197D2E6F08E8
:0C0D1800013A03197F2E812E762E912EB9
:100DF00021308400453083120313F0009730E8005F
:100E00000630E9005C25A03084001C30F000DC30A6
:0A0E1000E8000630E9005C25080048
:0C0D2E005534313420343D34203400347E
:080D3A0020346D3456340034FE
:060D420020345634003499
:0C0D48005534313420343D342034003464
:0C0D54005534323420343D342034003457
:080D600020346D3456340034D8
:0C0D68005534323420343D342034003443
:060D740020345634003467
:100D7A006B34653479343A34203453344234313460
:100D8A0020346F34723420345334423432340034D1
:100D9A005034723465347334733420346F346E349F
:0E0DAA006C34793420346F346E346534003488
:100DB8006134723465342034703472346534733479
:080DC800733465346434003417
:100DD0004534723472346F347234213420345434D4
:100DE00077346F3420346B346534793473340034A1
:02400E007A3BFB
:00000001FF
