:020000003E2C94
:0E000600213083120313FD00FD0B07280800B4
:06001400000000000800DE
:10001A000F3083120313FC004730FD00FD0B132839
:0A002A00FC0B132800000000080082
:1000340083120313C81B2028871321288717481B02
:100044002528071326280717C81A2A2887122B28B9
:100054008716481A2F280712302807162A1834281A
:1000640007153528071187150A208711C8193C2858
:1000740087133D2887174819412807134228071773
:10008400C818462887124728871648184B2807128D
:100094004C2807162A1850280715512807118715C8
:1000A4000A2087112A1C58280D20592803200800EB
:1000B40083120313F801F9011030FC00710DF80DDF
:1000C400F90D7408F8027508031C750FF90203187A
:1000D40072287408F80775080318750FF9070310D8
:0A00E400F00DF10DFC0B6028080080
:1000EE007408F8027508031C750FF9027608031CD4
:1000FE00760FFA027708031C770FFB02F30D073019
:10010E00FC00730DF80DF90DFA0DFB0D7408731C40
:10011E009E28F8027508031C750FF9027608031C59
:10012E00760FFA027708031C770FFB02AB28F8074D
:10013E0075080318750FF90776080318760FFA0776
:10014E0077080318770FFB07F30DFC0B8828720D49
:10015E00F80DF90DFA0DFB0D7408731CC428F80286
:10016E007508031C750FF9027608031C760FFA0248
:10017E007708031C770FFB02D128F80775080318C0
:10018E00750FF90776080318760FFA077708031824
:10019E00770FFB07F20D0730FC00720DF80DF90D0D
:1001AE00FA0DFB0D7408721CEA28F8027508031C80
:1001BE00750FF9027608031C760FFA027708031CF6
:1001CE00770FFB02F728F80775080318750FF90764
:1001DE0076080318760FFA0777080318770FFB07D0
:1001EE00F20DFC0BD428710DF80DF90DFA0DFB0D67
:1001FE007408721C1029F8027508031C750FF90299
:10020E007608031C760FFA027708031C770FFB02A1
:10021E001D29F80775080318750FF90776080318D6
:10022E00760FFA0777080318770FFB07F10D0730E3
:10023E00FC00710DF80DF90DFA0DFB0D7408711C13
:10024E003629F8027508031C750FF9027608031C8F
:10025E00760FFA027708031C770FFB024329F80783
:10026E0075080318750FF90776080318760FFA0745
:10027E0077080318770FFB07F10DFC0B2029700D83
:10028E00F80DF90DFA0DFB0D7408711C5C29F802BE
:10029E007508031C750FF9027608031C760FFA0217
:1002AE007708031C770FFB026929F80775080318F6
:1002BE00750FF90776080318760FFA0777080318F3
:1002CE00770FFB07F00D0730FC00700DF80DF90DE0
:1002DE00FA0DFB0D7408701C8229F8027508031CB8
:1002EE00750FF9027608031C760FFA027708031CC5
:1002FE00770FFB028F29F80775080318750FF9079A
:10030E0076080318760FFA0777080318770FFB079E
:10031E00F00DFC0B6C297018A2297408F8077508EB
:10032E000318750FF90776080318760FFA07770882
:08033E000318770FFB0708000C
:1003460083120313C601053046020318B129460875
:100356004507840020308000C60AA62946084507BE
:1003660084008001C60346084507C7000A30F4002A
:10037600F5014308F0004408F1005A207808F0001F
:100386007908F1003030F0074708840070088000D3
:100396000A30F400F5014308F0004408F1005A2041
:1003A6007008C3007108C40000307106031DDD2902
:1003B60000307006031DE029E229C603B6290800AD
:1003C6000E3083120313FD00FD0BE7290000080021
:0E03D600831203132F088A002E0882000800ED
:1003E400FB09FA09F909F809F80A0319F90A0319C2
:0803F400FA0A0319FB0A0800D4
:1003FC00831203132A104308C8001A202A14080079
:10040C0083120313BF01C0013A08C1003B08C200AC
:10041C0080303B06F00080307002031D172A00303C
:10042C003A020318252A0130BF000030C0003A08F8
:10043C00003CC1003B08031C013EC201C202410842
:10044C00C3004208C4003C08C500A3210630BD000F
:10045C000030BE003E08003C031D362A3D08003C1F
:10046C000318512A3D083C07F20001303D02F00010
:10047C000030031C013E3E02F10070083C07840072
:10048C000008F00072088400700880000130BD0282
:10049C00031CBE03302A3C088400203080003F0837
:1004AC00400403196F2ABD01BE013D083C078400BE
:1004BC000008203A031D662ABD0A0319BE0A5B2AEE
:1004CC000130BD02031CBE033D083C0784002D30E7
:0404DC008000080094
:1004E000822A803083120313BA00952AC030BA00E2
:1004F000952A9430BA00952AD430BA00952A8030D3
:10050000BA00952A831203133A08013A0319712A93
:100510003A08023A0319762A3A08033A0319792A63
:100520003A08043A03197C2A7F2A3B03F0003A0870
:10053000F0077008BA007008C8001A202A10BD0120
:100540003D083C07840000080319AE2A3D083C071B
:1005500084000008C300FE21BD0AA02A2A14080056
:10056000831203137408003A031DCB2A7508003A5E
:10057000031DCB2A7608003A031DCB2A7708003AE0
:10058000031DCB2AFF30F000FF30F100FF30F200F6
:100590007F30F300642B83120313FC01F71BFC0A6A
:1005A000FD01FB01FA01F901F801730872047104FD
:1005B000700403195F2B73087706A000A01BFD09C8
:1005C000F71FED2AF409F509F609F709F40A0319EA
:1005D000F50A0319F60A0319F70AF31FFA2AF009B4
:1005E000F109F209F309F00A0319F10A0319F20AF1
:1005F0000319F30A73087704A000A01B1B2B7720B4
:10060000FC1B382BFD1F5F2BF009F109F209F309E0
:10061000F00A0319F10A0319F20A0319F30AF80997
:10062000F909FA09FB09F80A0319F90A0319FA0A80
:100630000319FB0A5F2BF71F322BF31B2C2B7308BC
:10064000FB007208FA007108F9007008F800F30165
:10065000F201F101F001022BF301F201F101F001CD
:10066000F00A0034F309F209F109F009FC17FF2A36
:10067000F80A0319F90A0319FA0A0319FB0A74089C
:100680007802031D022B75087902031D022B7608E0
:100690007A02031D022B77087B02031D022BFB014C
:1006A000FA01F901F801F00A0319F10A0319F20A33
:1006B0000319F30AF31F022BA0012016FF34A00137
:0A06C0007C1C632BF221003E0800B1
:1006CA00831203132230FC00F801F901FA01FB013D
:1006DA00FC0303199B2B0310FB0CFA0CF90CF80C06
:1006EA00F30CF20CF10CF00C031C6D2BFC03031938
:1006FA008D2B7408F80775080318750FF907760823
:10070A000318760FFA0777080318770FFB07712B80
:10071A007408F80775080318750FF907760803189F
:0E072A00760FFA0777080318770FFB07080011
:10073800831203139F01C0309F0483161F179F174E
:1007480083123A08F000F00D7010F00D7010F00DE3
:10075800701070089F041F14E3211F151F1DB62B6E
:100768000000B22B1F101E08F100F00183161E08AE
:08077800F0040030F104080058
:10078000FF3083120313AB00FF30AC00FF30AD002D
:10079000FF309F01C0309F0483161F179F178312DD
:0407A0001F1408001A
:1007A4008316031387110711071287120713871380
:1007B40083128711071187130713871207120D205D
:1007C4000D200D208716071687150A2087110D2086
:1007D40087150A2087110D2087150A2087110D20FF
:1007E400071287150A2087110D2087150A20871103
:1007F4008712871787150A2087110D20871307167C
:1008040087150A208711071287150A2087110D20E2
:1008140087150A208711071687150A2087110D20CE
:10082400071287150A2087118717071787160716D7
:0C08340087150A2087110D202A140800E7
:1008400083120313BB013B083A0784000008031915
:10085000312C3B083A0784000008C300FE21BB0A84
:04086000232C08003D
:10086400EB218A110A128000840AAE0A0319AF0A26
:08087400F003031D322C080003
:10087C00203083120313A1006D30A2005630A30068
:10088C00A4015530A5003130A6002030A7003D3022
:10089C00A800A901013083168500C023D2230130A2
:1008AC00C8001A200C30C8001A20BA019C23003052
:1008BC00F11BFF30F200F3008830F4001330F50028
:1008CC00F601F7016523FF30F4000330F500F60163
:1008DC00F701B0227008BA007108BB003030BC00C0
:1008EC0006220130C8001A200130BA000430BB00C7
:1008FC002530BC0070223030BA0020242130BA00E0
:10090C0020241530FB004B30FC00BE30FD00FD0BED
:10091C008D2CFC0B8D2CFB0B8D2C00005B2C952C4B
:02400E007A3BFB
:00000001FF
