:0200000089284D
:0E0006008312031321088A00200882000800DC
:1000140083120313FB01FA01F9018030F800F10C9B
:10002400F00C031C1E287408F90775080318750FD3
:10003400FA070318FB0A0310F01F26287408FA07AE
:1000440075080318750FFB07FB0CFA0CF90CF80C78
:10005400031C11287B08F3007A08F2007908F100E8
:060064007808F00008001E
:0C006A008312031395011712971208006F
:10007600831603130711831212150C309704080018
:1000860003208A110A128000840AA00A0319A10A11
:08009600F003031D43280800DC
:10009E00831603131208013EF000F1010318F10A52
:1000AE0083122308F400F5010A200630F2007008CE
:1000BE00F4007108F500720803196A28F50CF40CA7
:1000CE00F513FF3E63280430F1007408F000710848
:1000DE0003197528F00D7010FF3E6F283030700533
:1000EE00F3007408F0007508F100F10CF00CF11338
:1000FE00F10CF00CF113700895000F309705730892
:04010E00970408004A
:100112007F3083120313A200FF308316860087010B
:1001220081138312121492106330831692003520C9
:100132003B202208A3004F200618AD283430FC00D3
:10014200F130FD00FD0BA328FC0BA32800000000EA
:10015200A20A2208A3004F208618BD283430FC00D2
:10016200F130FD00FD0BB328FC0BB32800000000AA
:0C017200A2032208A3004F209D28BE28F5
:02400E007A3BFB
:00000001FF
