:02000000AB282B
:0E0006008312031321088A00200882000800DC
:10001400710DF80DF90D7408F8027508031C750FBD
:10002400F902F00DF10D0F30FC00710DF80DF90D12
:100034007408701C2328F8027508031C750FF90254
:100044002828F80775080318750FF907F00DF10D46
:10005400FC0B1728701834287408F807750803185F
:08006400750FF9070000080008
:10006C00831203137408003A031D45287508003ADF
:10007C00031D4528FF30F0007F30F1009E288312CD
:10008C000313FD01F901F801710870040319003420
:10009C0071087506FA00FA1BFD09FB01F51F5B28B8
:1000AC00F409F509F40A0319F50AF11F6228F0099D
:1000BC00F109F00A0319F10A71087504FA00FA1B28
:1000CC0077280A207B188A28FD1F0034F009F109D3
:1000DC00F00A0319F10AF809F909F80A0319F90ADF
:1000EC000034F51F8628F11B82287108F90070086E
:1000FC00F800F101F0016A28F101F001F00A003476
:10010C00F109F009FB0A6728F80A0319F90A7408BF
:10011C007802031D6A2875087902031D6A28F90103
:10012C00F801F00A0319F10AF11F6A280000FF34E4
:02013C000800B9
:10013E0003208A110A128000840AA00A0319A10A58
:08014E00F003031D9F280800C7
:10015600831603138701831287010130A200003042
:10016600A30080302306F0008030013A7002031DA0
:10017600BE28F5302202031820290A30F400003088
:10018600F5002208F0002308F10036207808F00078
:100196007908F10000307106031DD328003070067F
:1001A600031DD728013087061930F4000030F5000A
:1001B6002208F0002308F10036207808F0007908BC
:1001C600F10000307106031DEA2800307006031D99
:1001D600EE28043087066430F4000030F50022086B
:1001E600F0002308F10036207808F0007908F100C5
:1001F60000307106031D012900307006031D052914
:1002060010308706F430F4000130F5002208F000C3
:100216002308F10036207808F0007908F100003054
:100226007106031D182900307006031D1C29403075
:0E0236008706A20A0319A30AB428B0282129BA
:02400E007A3BFB
:00000001FF
