:02000000BD2819
:0E0006008312031321088A00200882000800DC
:10001400831203132230FC00F801F901FA01FB01F9
:10002400FC03031940280310FB0CFA0CF90CF80C20
:10003400F30CF20CF10CF00C031C1228FC03031952
:1000440032287408F80775080318750FF90776083D
:100054000318760FFA0777080318770FFB0716289B
:100064007408F80775080318750FF907760803185C
:0E007400760FFA0777080318770FFB070800CE
:10008200D03083120313A4000730A500A601A701F4
:10009200D030F0000730F1000030F2000030F30001
:1000A2002208F4002308F500F601F7010A2070087F
:1000B200A4007108A5007208A6007308A70000300A
:1000C2007302031D6E2800307202031D6E28023077
:1000D2007102031D6E28B230700203187128B02815
:1000E200B230F0000230F100F201F3017008A40214
:1000F2007108031C710FA5027208031C720FA6027D
:100102007308031C730FA7020530F000700803196F
:100112009128A70CA60CA50CA40CA713FF3E8828B7
:100122002408F0002508F1002608F2002708F30051
:100132000130A402031CA502031CA602031CA70291
:1001420070087104720473040319B02800000000DF
:1001520000000000000000000000000091280800DC
:1001620003208A110A128000840AA00A0319A10A34
:08017200F003031DB128080091
:10017A007030831603138600831286018701E728ED
:10018A00F8280714E830A2000330A3004120061023
:10019A00F8288614E830A2000330A3004120861014
:1001AA00F8280615E830A2000330A3004120061102
:1001BA00F828E0308600E830A2000330A30041208E
:1001CA008601F8280608003A0319C5280608063ADF
:1001DA000319C6280608053A0319CE280608033A61
:0A01EA000319D628DE28C428F928DE
:02400E007A3BFB
:00000001FF
